{
  "contractName": "Hospital",
  "abi": [
    {
      "inputs": [
        {
          "internalType": "string",
          "name": "_hos_id",
          "type": "string"
        },
        {
          "internalType": "string",
          "name": "_hospital_name",
          "type": "string"
        }
      ],
      "name": "getHashH",
      "outputs": [
        {
          "internalType": "bytes32",
          "name": "",
          "type": "bytes32"
        }
      ],
      "stateMutability": "view",
      "type": "function",
      "constant": true
    },
    {
      "inputs": [
        {
          "internalType": "string",
          "name": "_hos_id",
          "type": "string"
        },
        {
          "internalType": "string",
          "name": "_hospital_name",
          "type": "string"
        },
        {
          "internalType": "string",
          "name": "_hospital_address",
          "type": "string"
        },
        {
          "internalType": "string",
          "name": "_phone",
          "type": "string"
        },
        {
          "internalType": "string",
          "name": "_email",
          "type": "string"
        },
        {
          "internalType": "bytes32",
          "name": "_hash",
          "type": "bytes32"
        }
      ],
      "name": "newRegistrationH",
      "outputs": [],
      "stateMutability": "nonpayable",
      "type": "function"
    },
    {
      "inputs": [
        {
          "internalType": "string",
          "name": "_hos_id",
          "type": "string"
        },
        {
          "internalType": "bytes32",
          "name": "_hash",
          "type": "bytes32"
        }
      ],
      "name": "ViewDetailsH",
      "outputs": [
        {
          "internalType": "string",
          "name": "",
          "type": "string"
        },
        {
          "internalType": "string",
          "name": "",
          "type": "string"
        },
        {
          "internalType": "string",
          "name": "",
          "type": "string"
        },
        {
          "internalType": "string",
          "name": "",
          "type": "string"
        },
        {
          "internalType": "string",
          "name": "",
          "type": "string"
        }
      ],
      "stateMutability": "view",
      "type": "function",
      "constant": true
    }
  ],
  "bytecode": "0x608060405234801561001057600080fd5b50611649806100206000396000f3fe608060405234801561001057600080fd5b50600436106100415760003560e01c806377e3ac2d14610046578063c99e5797146101ac578063d267aaf0146104cd575b600080fd5b6101966004803603604081101561005c57600080fd5b810190808035906020019064010000000081111561007957600080fd5b82018360208201111561008b57600080fd5b803590602001918460018302840111640100000000831117156100ad57600080fd5b91908080601f016020809104026020016040519081016040528093929190818152602001838380828437600081840152601f19601f8201169050808301925050505050505091929192908035906020019064010000000081111561011057600080fd5b82018360208201111561012257600080fd5b8035906020019184600183028401116401000000008311171561014457600080fd5b91908080601f016020809104026020016040519081016040528093929190818152602001838380828437600081840152601f19601f8201169050808301925050505050505091929192905050506107bb565b6040518082815260200191505060405180910390f35b6104cb600480360360c08110156101c257600080fd5b81019080803590602001906401000000008111156101df57600080fd5b8201836020820111156101f157600080fd5b8035906020019184600183028401116401000000008311171561021357600080fd5b91908080601f016020809104026020016040519081016040528093929190818152602001838380828437600081840152601f19601f8201169050808301925050505050505091929192908035906020019064010000000081111561027657600080fd5b82018360208201111561028857600080fd5b803590602001918460018302840111640100000000831117156102aa57600080fd5b91908080601f016020809104026020016040519081016040528093929190818152602001838380828437600081840152601f19601f8201169050808301925050505050505091929192908035906020019064010000000081111561030d57600080fd5b82018360208201111561031f57600080fd5b8035906020019184600183028401116401000000008311171561034157600080fd5b91908080601f016020809104026020016040519081016040528093929190818152602001838380828437600081840152601f19601f820116905080830192505050505050509192919290803590602001906401000000008111156103a457600080fd5b8201836020820111156103b657600080fd5b803590602001918460018302840111640100000000831117156103d857600080fd5b91908080601f016020809104026020016040519081016040528093929190818152602001838380828437600081840152601f19601f8201169050808301925050505050505091929192908035906020019064010000000081111561043b57600080fd5b82018360208201111561044d57600080fd5b8035906020019184600183028401116401000000008311171561046f57600080fd5b91908080601f016020809104026020016040519081016040528093929190818152602001838380828437600081840152601f19601f82011690508083019250505050505050919291929080359060200190929190505050610a20565b005b610590600480360360408110156104e357600080fd5b810190808035906020019064010000000081111561050057600080fd5b82018360208201111561051257600080fd5b8035906020019184600183028401116401000000008311171561053457600080fd5b91908080601f016020809104026020016040519081016040528093929190818152602001838380828437600081840152601f19601f82011690508083019250505050505050919291929080359060200190929190505050610e2b565b60405180806020018060200180602001806020018060200186810386528b818151815260200191508051906020019080838360005b838110156105e05780820151818401526020810190506105c5565b50505050905090810190601f16801561060d5780820380516001836020036101000a031916815260200191505b5086810385528a818151815260200191508051906020019080838360005b8381101561064657808201518184015260208101905061062b565b50505050905090810190601f1680156106735780820380516001836020036101000a031916815260200191505b50868103845289818151815260200191508051906020019080838360005b838110156106ac578082015181840152602081019050610691565b50505050905090810190601f1680156106d95780820380516001836020036101000a031916815260200191505b50868103835288818151815260200191508051906020019080838360005b838110156107125780820151818401526020810190506106f7565b50505050905090810190601f16801561073f5780820380516001836020036101000a031916815260200191505b50868103825287818151815260200191508051906020019080838360005b8381101561077857808201518184015260208101905061075d565b50505050905090810190601f1680156107a55780820380516001836020036101000a031916815260200191505b509a505050505050505050505060405180910390f35b6000806000846040518082805190602001908083835b602083106107f457805182526020820191506020810190506020830392506107d1565b6001836020036101000a038019825116818451168082178552505050505050905001915050908152602001604051809103902060000180546001816001161561010002031660029004905014610895576040517f08c379a00000000000000000000000000000000000000000000000000000000081526004018080602001828103825260248152602001806115f06024913960400191505060405180910390fd5b600283836040516020018083805190602001908083835b602083106108cf57805182526020820191506020810190506020830392506108ac565b6001836020036101000a03801982511681845116808217855250505050505090500182805190602001908083835b6020831061092057805182526020820191506020810190506020830392506108fd565b6001836020036101000a038019825116818451168082178552505050505050905001807f2a265e3839373633323633000000000000000000000000000000000000000000815250600b01925050506040516020818303038152906040526040518082805190602001908083835b602083106109b0578051825260208201915060208101905060208303925061098d565b6001836020036101000a038019825116818451168082178552505050505050905001915050602060405180830381855afa1580156109f2573d6000803e3d6000fd5b5050506040513d6020811015610a0757600080fd5b8101908080519060200190929190505050905092915050565b600080876040518082805190602001908083835b60208310610a575780518252602082019150602081019050602083039250610a34565b6001836020036101000a038019825116818451168082178552505050505050905001915050908152602001604051809103902060000180546001816001161561010002031660029004905014610af8576040517f08c379a00000000000000000000000000000000000000000000000000000000081526004018080602001828103825260248152602001806115f06024913960400191505060405180910390fd5b80600287876040516020018083805190602001908083835b60208310610b335780518252602082019150602081019050602083039250610b10565b6001836020036101000a03801982511681845116808217855250505050505090500182805190602001908083835b60208310610b845780518252602082019150602081019050602083039250610b61565b6001836020036101000a038019825116818451168082178552505050505050905001807f2a265e3839373633323633000000000000000000000000000000000000000000815250600b01925050506040516020818303038152906040526040518082805190602001908083835b60208310610c145780518252602082019150602081019050602083039250610bf1565b6001836020036101000a038019825116818451168082178552505050505050905001915050602060405180830381855afa158015610c56573d6000803e3d6000fd5b5050506040513d6020811015610c6b57600080fd5b810190808051906020019092919050505014610cef576040517f08c379a00000000000000000000000000000000000000000000000000000000081526004018080602001828103825260118152602001807f57726f6e6720696e666f726d6174696f6e00000000000000000000000000000081525060200191505060405180910390fd5b6040518060c00160405280878152602001868152602001858152602001848152602001838152602001828152506000876040518082805190602001908083835b60208310610d525780518252602082019150602081019050602083039250610d2f565b6001836020036101000a03801982511681845116808217855250505050505090500191505090815260200160405180910390206000820151816000019080519060200190610da192919061150c565b506020820151816001019080519060200190610dbe92919061150c565b506040820151816002019080519060200190610ddb92919061150c565b506060820151816003019080519060200190610df892919061150c565b506080820151816004019080519060200190610e1592919061150c565b5060a08201518160050155905050505050505050565b6060806060806060600080886040518082805190602001908083835b60208310610e6a5780518252602082019150602081019050602083039250610e47565b6001836020036101000a03801982511681845116808217855250505050505090500191505090815260200160405180910390206000018054600181600116156101000203166002900490501415610f0c576040517f08c379a00000000000000000000000000000000000000000000000000000000081526004018080602001828103825260248152602001806115cc6024913960400191505060405180910390fd5b856000886040518082805190602001908083835b60208310610f435780518252602082019150602081019050602083039250610f20565b6001836020036101000a03801982511681845116808217855250505050505090500191505090815260200160405180910390206005015414610fd0576040517f08c379a00000000000000000000000000000000000000000000000000000000081526004018080602001828103825260228152602001806115aa6022913960400191505060405180910390fd5b6000876040518082805190602001908083835b602083106110065780518252602082019150602081019050602083039250610fe3565b6001836020036101000a03801982511681845116808217855250505050505090500191505090815260200160405180910390206000016000886040518082805190602001908083835b60208310611072578051825260208201915060208101905060208303925061104f565b6001836020036101000a03801982511681845116808217855250505050505090500191505090815260200160405180910390206001016000896040518082805190602001908083835b602083106110de57805182526020820191506020810190506020830392506110bb565b6001836020036101000a038019825116818451168082178552505050505050905001915050908152602001604051809103902060020160008a6040518082805190602001908083835b6020831061114a5780518252602082019150602081019050602083039250611127565b6001836020036101000a038019825116818451168082178552505050505050905001915050908152602001604051809103902060030160008b6040518082805190602001908083835b602083106111b65780518252602082019150602081019050602083039250611193565b6001836020036101000a0380198251168184511680821785525050505050509050019150509081526020016040518091039020600401848054600181600116156101000203166002900480601f0160208091040260200160405190810160405280929190818152602001828054600181600116156101000203166002900480156112815780601f1061125657610100808354040283529160200191611281565b820191906000526020600020905b81548152906001019060200180831161126457829003601f168201915b50505050509450838054600181600116156101000203166002900480601f01602080910402602001604051908101604052809291908181526020018280546001816001161561010002031660029004801561131d5780601f106112f25761010080835404028352916020019161131d565b820191906000526020600020905b81548152906001019060200180831161130057829003601f168201915b50505050509350828054600181600116156101000203166002900480601f0160208091040260200160405190810160405280929190818152602001828054600181600116156101000203166002900480156113b95780601f1061138e576101008083540402835291602001916113b9565b820191906000526020600020905b81548152906001019060200180831161139c57829003601f168201915b50505050509250818054600181600116156101000203166002900480601f0160208091040260200160405190810160405280929190818152602001828054600181600116156101000203166002900480156114555780601f1061142a57610100808354040283529160200191611455565b820191906000526020600020905b81548152906001019060200180831161143857829003601f168201915b50505050509150808054600181600116156101000203166002900480601f0160208091040260200160405190810160405280929190818152602001828054600181600116156101000203166002900480156114f15780601f106114c6576101008083540402835291602001916114f1565b820191906000526020600020905b8154815290600101906020018083116114d457829003601f168201915b50505050509050945094509450945094509295509295909350565b828054600181600116156101000203166002900490600052602060002090601f016020900481019282601f1061154d57805160ff191683800117855561157b565b8280016001018555821561157b579182015b8281111561157a57825182559160200191906001019061155f565b5b509050611588919061158c565b5090565b5b808211156115a557600081600090555060010161158d565b509056fe486f73706974616c20494420616e64204861736820646f65736e2774206d61746368486f73706974616c20646f65736e27742065786973747320776974682074686973206964486f73706974616c20616c72656164792065786973747320776974682074686973206964a2646970667358221220a323f70d70a9154765697d630461d5e0720560d0feab9e1fb9a76d48687bddf764736f6c634300060c0033",
  "immutableReferences": {},
  "source": "// SPDX-License-Identifier: MIT\r\npragma solidity >=0.4.22 <0.7.0;\r\n\r\n\r\ncontract Hospital {\r\n    \r\n     mapping(string => hospital) hospitallist; \r\n     \r\n     struct hospital{\r\n         string id;\r\n         string hospital_name;\r\n         string hospital_address;\r\n         string phone;\r\n         string email;\r\n         bytes32 hos_hash;\r\n\r\n     }\r\n     hospital h;\r\n     \r\n    \r\n     /*address owner1;\r\n    \r\n      constructor() public {\r\n          owner1 = msg.sender;\r\n      }\r\n      \r\n      // modifier to give access only to hospital\r\n      modifier isOwner1() {\r\n\r\n         require(msg.sender == owner1, \"Access is not allowed\");\r\n\r\n         _;\r\n\r\n     }*/\r\n     \r\n     function getHashH(string memory _hos_id, string memory _hospital_name) public view returns(bytes32){\r\n            \r\n            require(bytes(hospitallist[_hos_id].id).length == 0, \"Hospital already exists with this id\");\r\n               \r\n            return (sha256(abi.encodePacked(_hos_id , _hospital_name, '*&^89763263')));\r\n     }\r\n     \r\n     function newRegistrationH(string memory _hos_id, string memory _hospital_name, string memory _hospital_address,  string memory _phone, string memory _email, bytes32 _hash)public {\r\n         \r\n         \r\n         require(bytes(hospitallist[_hos_id].id).length == 0, \"Hospital already exists with this id\");\r\n         \r\n         require(sha256(abi.encodePacked(_hos_id , _hospital_name, '*&^89763263')) == _hash, \"Wrong information\");\r\n\r\n\r\n         hospitallist[_hos_id] = hospital({ id:_hos_id, hospital_name : _hospital_name, hospital_address : _hospital_address, phone : _phone, email : _email, hos_hash : _hash }) ;\r\n         \r\n    }\r\n         \r\n   \r\n    function ViewDetailsH(string memory _hos_id, bytes32 _hash) public view returns (string memory,string memory,string memory, string memory,string memory ){\r\n\r\n     require(bytes(hospitallist[_hos_id].id).length != 0, \"Hospital doesn't exists with this id\");\r\n     require(hospitallist[_hos_id].hos_hash == _hash, \"Hospital ID and Hash doesn't match\");\r\n     \r\n     return (hospitallist[_hos_id].id, hospitallist[_hos_id].hospital_name, hospitallist[_hos_id].hospital_address, hospitallist[_hos_id].phone, hospitallist[_hos_id].email);\r\n     \r\n    }           \r\n    \r\n}",
  "sourcePath": "C:/Users/Admin/Desktop/new/Testing/contracts/Hospital.sol",
  "compiler": {
    "name": "solc",
    "version": "0.6.12+commit.27d51765.Emscripten.clang"
  },
  "schemaVersion": "3.4.1",
  "updatedAt": "2021-07-20T13:03:22.372Z",
  "networkType": "ethereum",
  "devdoc": {
    "kind": "dev",
    "methods": {},
    "version": 1
  },
  "userdoc": {
    "kind": "user",
    "methods": {},
    "version": 1
  }
}