{
  "contractName": "Merge",
  "abi": [
    {
      "inputs": [],
      "name": "common_hash",
      "outputs": [
        {
          "internalType": "bytes32",
          "name": "",
          "type": "bytes32"
        }
      ],
      "stateMutability": "view",
      "type": "function",
      "constant": true
    },
    {
      "inputs": [
        {
          "internalType": "string",
          "name": "_id",
          "type": "string"
        },
        {
          "internalType": "string",
          "name": "_doctor_name",
          "type": "string"
        }
      ],
      "name": "getHashD",
      "outputs": [
        {
          "internalType": "bytes32",
          "name": "",
          "type": "bytes32"
        }
      ],
      "stateMutability": "view",
      "type": "function",
      "constant": true
    },
    {
      "inputs": [
        {
          "internalType": "string",
          "name": "_id",
          "type": "string"
        },
        {
          "internalType": "string",
          "name": "_doctor_name",
          "type": "string"
        },
        {
          "internalType": "string",
          "name": "_doctor_address",
          "type": "string"
        },
        {
          "internalType": "string",
          "name": "_phone",
          "type": "string"
        },
        {
          "internalType": "string",
          "name": "_email",
          "type": "string"
        },
        {
          "internalType": "string",
          "name": "_dept",
          "type": "string"
        },
        {
          "internalType": "bytes32",
          "name": "_hash",
          "type": "bytes32"
        }
      ],
      "name": "newRegistrationD",
      "outputs": [],
      "stateMutability": "nonpayable",
      "type": "function"
    },
    {
      "inputs": [
        {
          "internalType": "string",
          "name": "_id",
          "type": "string"
        },
        {
          "internalType": "bytes32",
          "name": "_hash",
          "type": "bytes32"
        }
      ],
      "name": "ViewDetailsD",
      "outputs": [
        {
          "internalType": "string",
          "name": "",
          "type": "string"
        },
        {
          "internalType": "string",
          "name": "",
          "type": "string"
        },
        {
          "internalType": "string",
          "name": "",
          "type": "string"
        },
        {
          "internalType": "string",
          "name": "",
          "type": "string"
        },
        {
          "internalType": "string",
          "name": "",
          "type": "string"
        },
        {
          "internalType": "string",
          "name": "",
          "type": "string"
        }
      ],
      "stateMutability": "view",
      "type": "function",
      "constant": true
    },
    {
      "inputs": [
        {
          "internalType": "string",
          "name": "_id",
          "type": "string"
        },
        {
          "internalType": "string",
          "name": "_patient_name",
          "type": "string"
        }
      ],
      "name": "getHashP",
      "outputs": [
        {
          "internalType": "bytes32",
          "name": "",
          "type": "bytes32"
        }
      ],
      "stateMutability": "view",
      "type": "function",
      "constant": true
    },
    {
      "inputs": [
        {
          "internalType": "string",
          "name": "_id",
          "type": "string"
        },
        {
          "internalType": "string",
          "name": "_patient_name",
          "type": "string"
        },
        {
          "internalType": "string",
          "name": "_patient_address",
          "type": "string"
        },
        {
          "internalType": "string",
          "name": "_phone",
          "type": "string"
        },
        {
          "internalType": "string",
          "name": "_email",
          "type": "string"
        },
        {
          "internalType": "bytes32",
          "name": "_hash",
          "type": "bytes32"
        }
      ],
      "name": "newRegistrationP",
      "outputs": [],
      "stateMutability": "nonpayable",
      "type": "function"
    },
    {
      "inputs": [
        {
          "internalType": "string",
          "name": "_id",
          "type": "string"
        },
        {
          "internalType": "bytes32",
          "name": "_hash",
          "type": "bytes32"
        }
      ],
      "name": "ViewDetailsP",
      "outputs": [
        {
          "internalType": "string",
          "name": "",
          "type": "string"
        },
        {
          "internalType": "string",
          "name": "",
          "type": "string"
        },
        {
          "internalType": "string",
          "name": "",
          "type": "string"
        },
        {
          "internalType": "string",
          "name": "",
          "type": "string"
        },
        {
          "internalType": "string",
          "name": "",
          "type": "string"
        }
      ],
      "stateMutability": "view",
      "type": "function",
      "constant": true
    },
    {
      "inputs": [
        {
          "internalType": "string",
          "name": "h_id",
          "type": "string"
        },
        {
          "internalType": "string",
          "name": "p_id",
          "type": "string"
        },
        {
          "internalType": "string",
          "name": "d_id",
          "type": "string"
        },
        {
          "internalType": "string",
          "name": "_date",
          "type": "string"
        },
        {
          "internalType": "string",
          "name": "_ipfshash",
          "type": "string"
        }
      ],
      "name": "Add_record",
      "outputs": [],
      "stateMutability": "nonpayable",
      "type": "function"
    },
    {
      "inputs": [
        {
          "internalType": "string",
          "name": "d_id",
          "type": "string"
        }
      ],
      "name": "give_permission_to_doctor",
      "outputs": [],
      "stateMutability": "nonpayable",
      "type": "function"
    },
    {
      "inputs": [
        {
          "internalType": "string",
          "name": "d_id",
          "type": "string"
        }
      ],
      "name": "remove_permission_for_doctor",
      "outputs": [],
      "stateMutability": "nonpayable",
      "type": "function"
    },
    {
      "inputs": [
        {
          "internalType": "string",
          "name": "p_id",
          "type": "string"
        },
        {
          "internalType": "bytes32",
          "name": "p_hash",
          "type": "bytes32"
        },
        {
          "internalType": "string",
          "name": "_date",
          "type": "string"
        }
      ],
      "name": "view_record_as_patient",
      "outputs": [
        {
          "internalType": "string",
          "name": "",
          "type": "string"
        }
      ],
      "stateMutability": "view",
      "type": "function",
      "constant": true
    },
    {
      "inputs": [
        {
          "internalType": "string",
          "name": "p_id",
          "type": "string"
        },
        {
          "internalType": "string",
          "name": "d_id",
          "type": "string"
        },
        {
          "internalType": "string",
          "name": "_date",
          "type": "string"
        }
      ],
      "name": "view_record_as_doctor",
      "outputs": [
        {
          "internalType": "string",
          "name": "",
          "type": "string"
        }
      ],
      "stateMutability": "view",
      "type": "function",
      "constant": true
    },
    {
      "inputs": [
        {
          "internalType": "string",
          "name": "_hos_id",
          "type": "string"
        },
        {
          "internalType": "string",
          "name": "_doc_id",
          "type": "string"
        }
      ],
      "name": "View_Doctors_info",
      "outputs": [
        {
          "internalType": "string",
          "name": "",
          "type": "string"
        }
      ],
      "stateMutability": "view",
      "type": "function",
      "constant": true
    },
    {
      "inputs": [
        {
          "internalType": "string",
          "name": "_hos_id",
          "type": "string"
        },
        {
          "internalType": "string",
          "name": "_pat_id",
          "type": "string"
        }
      ],
      "name": "View_Patients_info",
      "outputs": [
        {
          "internalType": "string",
          "name": "",
          "type": "string"
        }
      ],
      "stateMutability": "view",
      "type": "function",
      "constant": true
    }
  ],
  "bytecode": "0x608060405234801561001057600080fd5b50615da380620000216000396000f3fe608060405234801561001057600080fd5b50600436106100ea5760003560e01c80636bea1f981161008c578063eb62109111610066578063eb62109114611519578063ec5c4079146115d4578063ee00f5c514611836578063f1c0124b1461199c576100ea565b80636bea1f9814610e1f5780639aa5152514611179578063a59f35281461134e576100ea565b80633c2f339e116100c85780633c2f339e146105ef5780634255410f1461091057806346e99266146109cb5780636b921bf014610b31576100ea565b8063059e43a9146100ef5780631f3b71871461040657806330fd53ef146105d1575b600080fd5b610404600480360360a081101561010557600080fd5b810190808035906020019064010000000081111561012257600080fd5b82018360208201111561013457600080fd5b8035906020019184600183028401116401000000008311171561015657600080fd5b91908080601f016020809104026020016040519081016040528093929190818152602001838380828437600081840152601f19601f820116905080830192505050505050509192919290803590602001906401000000008111156101b957600080fd5b8201836020820111156101cb57600080fd5b803590602001918460018302840111640100000000831117156101ed57600080fd5b91908080601f016020809104026020016040519081016040528093929190818152602001838380828437600081840152601f19601f8201169050808301925050505050505091929192908035906020019064010000000081111561025057600080fd5b82018360208201111561026257600080fd5b8035906020019184600183028401116401000000008311171561028457600080fd5b91908080601f016020809104026020016040519081016040528093929190818152602001838380828437600081840152601f19601f820116905080830192505050505050509192919290803590602001906401000000008111156102e757600080fd5b8201836020820111156102f957600080fd5b8035906020019184600183028401116401000000008311171561031b57600080fd5b91908080601f016020809104026020016040519081016040528093929190818152602001838380828437600081840152601f19601f8201169050808301925050505050505091929192908035906020019064010000000081111561037e57600080fd5b82018360208201111561039057600080fd5b803590602001918460018302840111640100000000831117156103b257600080fd5b91908080601f016020809104026020016040519081016040528093929190818152602001838380828437600081840152601f19601f820116905080830192505050505050509192919290505050611d54565b005b6105566004803603604081101561041c57600080fd5b810190808035906020019064010000000081111561043957600080fd5b82018360208201111561044b57600080fd5b8035906020019184600183028401116401000000008311171561046d57600080fd5b91908080601f016020809104026020016040519081016040528093929190818152602001838380828437600081840152601f19601f820116905080830192505050505050509192919290803590602001906401000000008111156104d057600080fd5b8201836020820111156104e257600080fd5b8035906020019184600183028401116401000000008311171561050457600080fd5b91908080601f016020809104026020016040519081016040528093929190818152602001838380828437600081840152601f19601f82011690508083019250505050505050919291929050505061315e565b6040518080602001828103825283818151815260200191508051906020019080838360005b8381101561059657808201518184015260208101905061057b565b50505050905090810190601f1680156105c35780820380516001836020036101000a031916815260200191505b509250505060405180910390f35b6105d96133ab565b6040518082815260200191505060405180910390f35b61090e600480360360c081101561060557600080fd5b810190808035906020019064010000000081111561062257600080fd5b82018360208201111561063457600080fd5b8035906020019184600183028401116401000000008311171561065657600080fd5b91908080601f016020809104026020016040519081016040528093929190818152602001838380828437600081840152601f19601f820116905080830192505050505050509192919290803590602001906401000000008111156106b957600080fd5b8201836020820111156106cb57600080fd5b803590602001918460018302840111640100000000831117156106ed57600080fd5b91908080601f016020809104026020016040519081016040528093929190818152602001838380828437600081840152601f19601f8201169050808301925050505050505091929192908035906020019064010000000081111561075057600080fd5b82018360208201111561076257600080fd5b8035906020019184600183028401116401000000008311171561078457600080fd5b91908080601f016020809104026020016040519081016040528093929190818152602001838380828437600081840152601f19601f820116905080830192505050505050509192919290803590602001906401000000008111156107e757600080fd5b8201836020820111156107f957600080fd5b8035906020019184600183028401116401000000008311171561081b57600080fd5b91908080601f016020809104026020016040519081016040528093929190818152602001838380828437600081840152601f19601f8201169050808301925050505050505091929192908035906020019064010000000081111561087e57600080fd5b82018360208201111561089057600080fd5b803590602001918460018302840111640100000000831117156108b257600080fd5b91908080601f016020809104026020016040519081016040528093929190818152602001838380828437600081840152601f19601f820116905080830192505050505050509192919290803590602001909291905050506133b1565b005b6109c96004803603602081101561092657600080fd5b810190808035906020019064010000000081111561094357600080fd5b82018360208201111561095557600080fd5b8035906020019184600183028401116401000000008311171561097757600080fd5b91908080601f016020809104026020016040519081016040528093929190818152602001838380828437600081840152601f19601f820116905080830192505050505050509192919290505050613849565b005b610b1b600480360360408110156109e157600080fd5b81019080803590602001906401000000008111156109fe57600080fd5b820183602082011115610a1057600080fd5b80359060200191846001830284011164010000000083111715610a3257600080fd5b91908080601f016020809104026020016040519081016040528093929190818152602001838380828437600081840152601f19601f82011690508083019250505050505050919291929080359060200190640100000000811115610a9557600080fd5b820183602082011115610aa757600080fd5b80359060200191846001830284011164010000000083111715610ac957600080fd5b91908080601f016020809104026020016040519081016040528093929190818152602001838380828437600081840152601f19601f8201169050808301925050505050505091929192905050506138ce565b6040518082815260200191505060405180910390f35b610bf460048036036040811015610b4757600080fd5b8101908080359060200190640100000000811115610b6457600080fd5b820183602082011115610b7657600080fd5b80359060200191846001830284011164010000000083111715610b9857600080fd5b91908080601f016020809104026020016040519081016040528093929190818152602001838380828437600081840152601f19601f82011690508083019250505050505050919291929080359060200190929190505050613b33565b60405180806020018060200180602001806020018060200186810386528b818151815260200191508051906020019080838360005b83811015610c44578082015181840152602081019050610c29565b50505050905090810190601f168015610c715780820380516001836020036101000a031916815260200191505b5086810385528a818151815260200191508051906020019080838360005b83811015610caa578082015181840152602081019050610c8f565b50505050905090810190601f168015610cd75780820380516001836020036101000a031916815260200191505b50868103845289818151815260200191508051906020019080838360005b83811015610d10578082015181840152602081019050610cf5565b50505050905090810190601f168015610d3d5780820380516001836020036101000a031916815260200191505b50868103835288818151815260200191508051906020019080838360005b83811015610d76578082015181840152602081019050610d5b565b50505050905090810190601f168015610da35780820380516001836020036101000a031916815260200191505b50868103825287818151815260200191508051906020019080838360005b83811015610ddc578082015181840152602081019050610dc1565b50505050905090810190601f168015610e095780820380516001836020036101000a031916815260200191505b509a505050505050505050505060405180910390f35b610ee260048036036040811015610e3557600080fd5b8101908080359060200190640100000000811115610e5257600080fd5b820183602082011115610e6457600080fd5b80359060200191846001830284011164010000000083111715610e8657600080fd5b91908080601f016020809104026020016040519081016040528093929190818152602001838380828437600081840152601f19601f82011690508083019250505050505050919291929080359060200190929190505050614215565b6040518080602001806020018060200180602001806020018060200187810387528d818151815260200191508051906020019080838360005b83811015610f36578082015181840152602081019050610f1b565b50505050905090810190601f168015610f635780820380516001836020036101000a031916815260200191505b5087810386528c818151815260200191508051906020019080838360005b83811015610f9c578082015181840152602081019050610f81565b50505050905090810190601f168015610fc95780820380516001836020036101000a031916815260200191505b5087810385528b818151815260200191508051906020019080838360005b83811015611002578082015181840152602081019050610fe7565b50505050905090810190601f16801561102f5780820380516001836020036101000a031916815260200191505b5087810384528a818151815260200191508051906020019080838360005b8381101561106857808201518184015260208101905061104d565b50505050905090810190601f1680156110955780820380516001836020036101000a031916815260200191505b50878103835289818151815260200191508051906020019080838360005b838110156110ce5780820151818401526020810190506110b3565b50505050905090810190601f1680156110fb5780820380516001836020036101000a031916815260200191505b50878103825288818151815260200191508051906020019080838360005b83811015611134578082015181840152602081019050611119565b50505050905090810190601f1680156111615780820380516001836020036101000a031916815260200191505b509c5050505050505050505050505060405180910390f35b6112d36004803603606081101561118f57600080fd5b81019080803590602001906401000000008111156111ac57600080fd5b8201836020820111156111be57600080fd5b803590602001918460018302840111640100000000831117156111e057600080fd5b91908080601f016020809104026020016040519081016040528093929190818152602001838380828437600081840152601f19601f820116905080830192505050505050509192919290803590602001909291908035906020019064010000000081111561124d57600080fd5b82018360208201111561125f57600080fd5b8035906020019184600183028401116401000000008311171561128157600080fd5b91908080601f016020809104026020016040519081016040528093929190818152602001838380828437600081840152601f19601f820116905080830192505050505050509192919290505050614a02565b6040518080602001828103825283818151815260200191508051906020019080838360005b838110156113135780820151818401526020810190506112f8565b50505050905090810190601f1680156113405780820380516001836020036101000a031916815260200191505b509250505060405180910390f35b61149e6004803603604081101561136457600080fd5b810190808035906020019064010000000081111561138157600080fd5b82018360208201111561139357600080fd5b803590602001918460018302840111640100000000831117156113b557600080fd5b91908080601f016020809104026020016040519081016040528093929190818152602001838380828437600081840152601f19601f8201169050808301925050505050505091929192908035906020019064010000000081111561141857600080fd5b82018360208201111561142a57600080fd5b8035906020019184600183028401116401000000008311171561144c57600080fd5b91908080601f016020809104026020016040519081016040528093929190818152602001838380828437600081840152601f19601f820116905080830192505050505050509192919290505050614d77565b6040518080602001828103825283818151815260200191508051906020019080838360005b838110156114de5780820151818401526020810190506114c3565b50505050905090810190601f16801561150b5780820380516001836020036101000a031916815260200191505b509250505060405180910390f35b6115d26004803603602081101561152f57600080fd5b810190808035906020019064010000000081111561154c57600080fd5b82018360208201111561155e57600080fd5b8035906020019184600183028401116401000000008311171561158057600080fd5b91908080601f016020809104026020016040519081016040528093929190818152602001838380828437600081840152601f19601f820116905080830192505050505050509192919290505050614fc4565b005b6117bb600480360360608110156115ea57600080fd5b810190808035906020019064010000000081111561160757600080fd5b82018360208201111561161957600080fd5b8035906020019184600183028401116401000000008311171561163b57600080fd5b91908080601f016020809104026020016040519081016040528093929190818152602001838380828437600081840152601f19601f8201169050808301925050505050505091929192908035906020019064010000000081111561169e57600080fd5b8201836020820111156116b057600080fd5b803590602001918460018302840111640100000000831117156116d257600080fd5b91908080601f016020809104026020016040519081016040528093929190818152602001838380828437600081840152601f19601f8201169050808301925050505050505091929192908035906020019064010000000081111561173557600080fd5b82018360208201111561174757600080fd5b8035906020019184600183028401116401000000008311171561176957600080fd5b91908080601f016020809104026020016040519081016040528093929190818152602001838380828437600081840152601f19601f820116905080830192505050505050509192919290505050615049565b6040518080602001828103825283818151815260200191508051906020019080838360005b838110156117fb5780820151818401526020810190506117e0565b50505050905090810190601f1680156118285780820380516001836020036101000a031916815260200191505b509250505060405180910390f35b6119866004803603604081101561184c57600080fd5b810190808035906020019064010000000081111561186957600080fd5b82018360208201111561187b57600080fd5b8035906020019184600183028401116401000000008311171561189d57600080fd5b91908080601f016020809104026020016040519081016040528093929190818152602001838380828437600081840152601f19601f8201169050808301925050505050505091929192908035906020019064010000000081111561190057600080fd5b82018360208201111561191257600080fd5b8035906020019184600183028401116401000000008311171561193457600080fd5b91908080601f016020809104026020016040519081016040528093929190818152602001838380828437600081840152601f19601f820116905080830192505050505050509192919290505050615387565b6040518082815260200191505060405180910390f35b611d52600480360360e08110156119b257600080fd5b81019080803590602001906401000000008111156119cf57600080fd5b8201836020820111156119e157600080fd5b80359060200191846001830284011164010000000083111715611a0357600080fd5b91908080601f016020809104026020016040519081016040528093929190818152602001838380828437600081840152601f19601f82011690508083019250505050505050919291929080359060200190640100000000811115611a6657600080fd5b820183602082011115611a7857600080fd5b80359060200191846001830284011164010000000083111715611a9a57600080fd5b91908080601f016020809104026020016040519081016040528093929190818152602001838380828437600081840152601f19601f82011690508083019250505050505050919291929080359060200190640100000000811115611afd57600080fd5b820183602082011115611b0f57600080fd5b80359060200191846001830284011164010000000083111715611b3157600080fd5b91908080601f016020809104026020016040519081016040528093929190818152602001838380828437600081840152601f19601f82011690508083019250505050505050919291929080359060200190640100000000811115611b9457600080fd5b820183602082011115611ba657600080fd5b80359060200191846001830284011164010000000083111715611bc857600080fd5b91908080601f016020809104026020016040519081016040528093929190818152602001838380828437600081840152601f19601f82011690508083019250505050505050919291929080359060200190640100000000811115611c2b57600080fd5b820183602082011115611c3d57600080fd5b80359060200191846001830284011164010000000083111715611c5f57600080fd5b91908080601f016020809104026020016040519081016040528093929190818152602001838380828437600081840152601f19601f82011690508083019250505050505050919291929080359060200190640100000000811115611cc257600080fd5b820183602082011115611cd457600080fd5b80359060200191846001830284011164010000000083111715611cf657600080fd5b91908080601f016020809104026020016040519081016040528093929190818152602001838380828437600081840152601f19601f820116905080830192505050505050509192919290803590602001909291905050506155ec565b005b60006004856040518082805190602001908083835b60208310611d8c5780518252602082019150602081019050602083039250611d69565b6001836020036101000a03801982511681845116808217855250505050505090500191505090815260200160405180910390206000018054600181600116156101000203166002900490501415611e2e576040517f08c379a0000000000000000000000000000000000000000000000000000000008152600401808060200182810382526022815260200180615d4c6022913960400191505060405180910390fd5b611e36615a8c565b6003846040518082805190602001908083835b60208310611e6c5780518252602082019150602081019050602083039250611e49565b6001836020036101000a038019825116818451168082178552505050505050905001915050908152602001604051809103902060405180610100016040529081600082018054600181600116156101000203166002900480601f016020809104026020016040519081016040528092919081815260200182805460018160011615610100020316600290048015611f445780601f10611f1957610100808354040283529160200191611f44565b820191906000526020600020905b815481529060010190602001808311611f2757829003601f168201915b50505050508152602001600182018054600181600116156101000203166002900480601f016020809104026020016040519081016040528092919081815260200182805460018160011615610100020316600290048015611fe65780601f10611fbb57610100808354040283529160200191611fe6565b820191906000526020600020905b815481529060010190602001808311611fc957829003601f168201915b50505050508152602001600282018054600181600116156101000203166002900480601f0160208091040260200160405190810160405280929190818152602001828054600181600116156101000203166002900480156120885780601f1061205d57610100808354040283529160200191612088565b820191906000526020600020905b81548152906001019060200180831161206b57829003601f168201915b50505050508152602001600382018054600181600116156101000203166002900480601f01602080910402602001604051908101604052809291908181526020018280546001816001161561010002031660029004801561212a5780601f106120ff5761010080835404028352916020019161212a565b820191906000526020600020905b81548152906001019060200180831161210d57829003601f168201915b50505050508152602001600482018054600181600116156101000203166002900480601f0160208091040260200160405190810160405280929190818152602001828054600181600116156101000203166002900480156121cc5780601f106121a1576101008083540402835291602001916121cc565b820191906000526020600020905b8154815290600101906020018083116121af57829003601f168201915b50505050508152602001600582018054600181600116156101000203166002900480601f01602080910402602001604051908101604052809291908181526020018280546001816001161561010002031660029004801561226e5780601f106122435761010080835404028352916020019161226e565b820191906000526020600020905b81548152906001019060200180831161225157829003601f168201915b505050505081526020016006820154815260200160078201805480602002602001604051908101604052809291908181526020016000905b82821015612362578382906000526020600020018054600181600116156101000203166002900480601f01602080910402602001604051908101604052809291908181526020018280546001816001161561010002031660029004801561234e5780601f106123235761010080835404028352916020019161234e565b820191906000526020600020905b81548152906001019060200180831161233157829003601f168201915b5050505050815260200190600101906122a6565b50505050815250509050612374615ad4565b6004866040518082805190602001908083835b602083106123aa5780518252602082019150602081019050602083039250612387565b6001836020036101000a03801982511681845116808217855250505050505090500191505090815260200160405180910390206040518060e0016040529081600082018054600181600116156101000203166002900480601f0160208091040260200160405190810160405280929190818152602001828054600181600116156101000203166002900480156124815780601f1061245657610100808354040283529160200191612481565b820191906000526020600020905b81548152906001019060200180831161246457829003601f168201915b50505050508152602001600182018054600181600116156101000203166002900480601f0160208091040260200160405190810160405280929190818152602001828054600181600116156101000203166002900480156125235780601f106124f857610100808354040283529160200191612523565b820191906000526020600020905b81548152906001019060200180831161250657829003601f168201915b50505050508152602001600282018054600181600116156101000203166002900480601f0160208091040260200160405190810160405280929190818152602001828054600181600116156101000203166002900480156125c55780601f1061259a576101008083540402835291602001916125c5565b820191906000526020600020905b8154815290600101906020018083116125a857829003601f168201915b50505050508152602001600382018054600181600116156101000203166002900480601f0160208091040260200160405190810160405280929190818152602001828054600181600116156101000203166002900480156126675780601f1061263c57610100808354040283529160200191612667565b820191906000526020600020905b81548152906001019060200180831161264a57829003601f168201915b50505050508152602001600482018054600181600116156101000203166002900480601f0160208091040260200160405190810160405280929190818152602001828054600181600116156101000203166002900480156127095780601f106126de57610100808354040283529160200191612709565b820191906000526020600020905b8154815290600101906020018083116126ec57829003601f168201915b505050505081526020016005820154815260200160068201805480602002602001604051908101604052809291908181526020016000905b828210156127fd578382906000526020600020018054600181600116156101000203166002900480601f0160208091040260200160405190810160405280929190818152602001828054600181600116156101000203166002900480156127e95780601f106127be576101008083540402835291602001916127e9565b820191906000526020600020905b8154815290600101906020018083116127cc57829003601f168201915b505050505081526020019060010190612741565b50505050815250509050816000015182602001518360400151846060015185608001518660a001516040516020018087805190602001908083835b6020831061285b5780518252602082019150602081019050602083039250612838565b6001836020036101000a038019825116818451168082178552505050505050905001807f202c20000000000000000000000000000000000000000000000000000000000081525060030186805190602001908083835b602083106128d457805182526020820191506020810190506020830392506128b1565b6001836020036101000a038019825116818451168082178552505050505050905001807f202c20000000000000000000000000000000000000000000000000000000000081525060030185805190602001908083835b6020831061294d578051825260208201915060208101905060208303925061292a565b6001836020036101000a038019825116818451168082178552505050505050905001807f202c20000000000000000000000000000000000000000000000000000000000081525060030184805190602001908083835b602083106129c657805182526020820191506020810190506020830392506129a3565b6001836020036101000a038019825116818451168082178552505050505050905001807f202c20000000000000000000000000000000000000000000000000000000000081525060030183805190602001908083835b60208310612a3f5780518252602082019150602081019050602083039250612a1c565b6001836020036101000a038019825116818451168082178552505050505050905001807f202c20000000000000000000000000000000000000000000000000000000000081525060030182805190602001908083835b60208310612ab85780518252602082019150602081019050602083039250612a95565b6001836020036101000a03801982511681845116808217855250505050505090500196505050505050506040516020818303038152906040526001886040518082805190602001908083835b60208310612b275780518252602082019150602081019050602083039250612b04565b6001836020036101000a0380198251168184511680821785525050505050509050019150509081526020016040518091039020866040518082805190602001908083835b60208310612b8e5780518252602082019150602081019050602083039250612b6b565b6001836020036101000a03801982511681845116808217855250505050505090500191505090815260200160405180910390209080519060200190612bd4929190615b14565b50806000015181602001518260400151836060015184608001516040516020018086805190602001908083835b60208310612c245780518252602082019150602081019050602083039250612c01565b6001836020036101000a038019825116818451168082178552505050505050905001807f202c20000000000000000000000000000000000000000000000000000000000081525060030185805190602001908083835b60208310612c9d5780518252602082019150602081019050602083039250612c7a565b6001836020036101000a038019825116818451168082178552505050505050905001807f202c20000000000000000000000000000000000000000000000000000000000081525060030184805190602001908083835b60208310612d165780518252602082019150602081019050602083039250612cf3565b6001836020036101000a038019825116818451168082178552505050505050905001807f202c20000000000000000000000000000000000000000000000000000000000081525060030183805190602001908083835b60208310612d8f5780518252602082019150602081019050602083039250612d6c565b6001836020036101000a038019825116818451168082178552505050505050905001807f202c20000000000000000000000000000000000000000000000000000000000081525060030182805190602001908083835b60208310612e085780518252602082019150602081019050602083039250612de5565b6001836020036101000a038019825116818451168082178552505050505050905001955050505050506040516020818303038152906040526002886040518082805190602001908083835b60208310612e765780518252602082019150602081019050602083039250612e53565b6001836020036101000a0380198251168184511680821785525050505050509050019150509081526020016040518091039020876040518082805190602001908083835b60208310612edd5780518252602082019150602081019050602083039250612eba565b6001836020036101000a03801982511681845116808217855250505050505090500191505090815260200160405180910390209080519060200190612f23929190615b14565b506004866040518082805190602001908083835b60208310612f5a5780518252602082019150602081019050602083039250612f37565b6001836020036101000a038019825116818451168082178552505050505050905001915050908152602001604051809103902060060185908060018154018082558091505060019003906000526020600020016000909190919091509080519060200190612fc9929190615b14565b506003856040518082805190602001908083835b602083106130005780518252602082019150602081019050602083039250612fdd565b6001836020036101000a03801982511681845116808217855250505050505090500191505090815260200160405180910390206007018690806001815401808255809150506001900390600052602060002001600090919091909150908051906020019061306f929190615b14565b50826000876040518082805190602001908083835b602083106130a75780518252602082019150602081019050602083039250613084565b6001836020036101000a0380198251168184511680821785525050505050509050019150509081526020016040518091039020856040518082805190602001908083835b6020831061310e57805182526020820191506020810190506020830392506130eb565b6001836020036101000a03801982511681845116808217855250505050505090500191505090815260200160405180910390209080519060200190613154929190615b14565b5050505050505050565b606060006003836040518082805190602001908083835b602083106131985780518252602082019150602081019050602083039250613175565b6001836020036101000a0380198251168184511680821785525050505050509050019150509081526020016040518091039020600001805460018160011615610100020316600290049050141561323a576040517f08c379a0000000000000000000000000000000000000000000000000000000008152600401808060200182810382526021815260200180615ca16021913960400191505060405180910390fd5b6001836040518082805190602001908083835b60208310613270578051825260208201915060208101905060208303925061324d565b6001836020036101000a0380198251168184511680821785525050505050509050019150509081526020016040518091039020826040518082805190602001908083835b602083106132d757805182526020820191506020810190506020830392506132b4565b6001836020036101000a03801982511681845116808217855250505050505090500191505090815260200160405180910390208054600181600116156101000203166002900480601f01602080910402602001604051908101604052809291908181526020018280546001816001161561010002031660029004801561339e5780601f106133735761010080835404028352916020019161339e565b820191906000526020600020905b81548152906001019060200180831161338157829003601f168201915b5050505050905092915050565b60065481565b60006004876040518082805190602001908083835b602083106133e957805182526020820191506020810190506020830392506133c6565b6001836020036101000a0380198251168184511680821785525050505050509050019150509081526020016040518091039020600001805460018160011615610100020316600290049050146134a7576040517f08c379a000000000000000000000000000000000000000000000000000000000815260040180806020018281038252601b8152602001807f50617469656e742065786973747320776974682074686973206964000000000081525060200191505060405180910390fd5b80600287876040516020018083805190602001908083835b602083106134e257805182526020820191506020810190506020830392506134bf565b6001836020036101000a03801982511681845116808217855250505050505090500182805190602001908083835b602083106135335780518252602082019150602081019050602083039250613510565b6001836020036101000a038019825116818451168082178552505050505050905001807f2a28292a292a282a5f2600000000000000000000000000000000000000000000815250600a01925050506040516020818303038152906040526040518082805190602001908083835b602083106135c357805182526020820191506020810190506020830392506135a0565b6001836020036101000a038019825116818451168082178552505050505050905001915050602060405180830381855afa158015613605573d6000803e3d6000fd5b5050506040513d602081101561361a57600080fd5b81019080805190602001909291905050501461369e576040517f08c379a00000000000000000000000000000000000000000000000000000000081526004018080602001828103825260118152602001807f57726f6e6720496e666f726d6174696f6e00000000000000000000000000000081525060200191505060405180910390fd5b6040518060e00160405280878152602001868152602001858152602001848152602001838152602001828152602001600067ffffffffffffffff811180156136e557600080fd5b5060405190808252806020026020018201604052801561371957816020015b60608152602001906001900390816137045790505b508152506004876040518082805190602001908083835b602083106137535780518252602082019150602081019050602083039250613730565b6001836020036101000a038019825116818451168082178552505050505050905001915050908152602001604051809103902060008201518160000190805190602001906137a2929190615b14565b5060208201518160010190805190602001906137bf929190615b14565b5060408201518160020190805190602001906137dc929190615b14565b5060608201518160030190805190602001906137f9929190615b14565b506080820151816004019080519060200190613816929190615b14565b5060a0820151816005015560c082015181600601908051906020019061383d929190615b94565b50905050505050505050565b60006005826040518082805190602001908083835b60208310613881578051825260208201915060208101905060208303925061385e565b6001836020036101000a038019825116818451168082178552505050505050905001915050908152602001604051809103902060006101000a81548160ff02191690831515021790555050565b6000806004846040518082805190602001908083835b6020831061390757805182526020820191506020810190506020830392506138e4565b6001836020036101000a0380198251168184511680821785525050505050509050019150509081526020016040518091039020600001805460018160011615610100020316600290049050146139a8576040517f08c379a0000000000000000000000000000000000000000000000000000000008152600401808060200182810382526023815260200180615c7e6023913960400191505060405180910390fd5b600283836040516020018083805190602001908083835b602083106139e257805182526020820191506020810190506020830392506139bf565b6001836020036101000a03801982511681845116808217855250505050505090500182805190602001908083835b60208310613a335780518252602082019150602081019050602083039250613a10565b6001836020036101000a038019825116818451168082178552505050505050905001807f2a28292a292a282a5f2600000000000000000000000000000000000000000000815250600a01925050506040516020818303038152906040526040518082805190602001908083835b60208310613ac35780518252602082019150602081019050602083039250613aa0565b6001836020036101000a038019825116818451168082178552505050505050905001915050602060405180830381855afa158015613b05573d6000803e3d6000fd5b5050506040513d6020811015613b1a57600080fd5b8101908080519060200190929190505050905092915050565b606080606080606060006004886040518082805190602001908083835b60208310613b735780518252602082019150602081019050602083039250613b50565b6001836020036101000a03801982511681845116808217855250505050505090500191505090815260200160405180910390206000018054600181600116156101000203166002900490501415613c15576040517f08c379a0000000000000000000000000000000000000000000000000000000008152600401808060200182810382526022815260200180615d4c6022913960400191505060405180910390fd5b856004886040518082805190602001908083835b60208310613c4c5780518252602082019150602081019050602083039250613c29565b6001836020036101000a03801982511681845116808217855250505050505090500191505090815260200160405180910390206005015414613cd9576040517f08c379a0000000000000000000000000000000000000000000000000000000008152600401808060200182810382526023815260200180615cc26023913960400191505060405180910390fd5b6004876040518082805190602001908083835b60208310613d0f5780518252602082019150602081019050602083039250613cec565b6001836020036101000a03801982511681845116808217855250505050505090500191505090815260200160405180910390206000016004886040518082805190602001908083835b60208310613d7b5780518252602082019150602081019050602083039250613d58565b6001836020036101000a03801982511681845116808217855250505050505090500191505090815260200160405180910390206001016004896040518082805190602001908083835b60208310613de75780518252602082019150602081019050602083039250613dc4565b6001836020036101000a038019825116818451168082178552505050505050905001915050908152602001604051809103902060020160048a6040518082805190602001908083835b60208310613e535780518252602082019150602081019050602083039250613e30565b6001836020036101000a038019825116818451168082178552505050505050905001915050908152602001604051809103902060030160048b6040518082805190602001908083835b60208310613ebf5780518252602082019150602081019050602083039250613e9c565b6001836020036101000a0380198251168184511680821785525050505050509050019150509081526020016040518091039020600401848054600181600116156101000203166002900480601f016020809104026020016040519081016040528092919081815260200182805460018160011615610100020316600290048015613f8a5780601f10613f5f57610100808354040283529160200191613f8a565b820191906000526020600020905b815481529060010190602001808311613f6d57829003601f168201915b50505050509450838054600181600116156101000203166002900480601f0160208091040260200160405190810160405280929190818152602001828054600181600116156101000203166002900480156140265780601f10613ffb57610100808354040283529160200191614026565b820191906000526020600020905b81548152906001019060200180831161400957829003601f168201915b50505050509350828054600181600116156101000203166002900480601f0160208091040260200160405190810160405280929190818152602001828054600181600116156101000203166002900480156140c25780601f10614097576101008083540402835291602001916140c2565b820191906000526020600020905b8154815290600101906020018083116140a557829003601f168201915b50505050509250818054600181600116156101000203166002900480601f01602080910402602001604051908101604052809291908181526020018280546001816001161561010002031660029004801561415e5780601f106141335761010080835404028352916020019161415e565b820191906000526020600020905b81548152906001019060200180831161414157829003601f168201915b50505050509150808054600181600116156101000203166002900480601f0160208091040260200160405190810160405280929190818152602001828054600181600116156101000203166002900480156141fa5780601f106141cf576101008083540402835291602001916141fa565b820191906000526020600020905b8154815290600101906020018083116141dd57829003601f168201915b50505050509050945094509450945094509295509295909350565b60608060608060608060006003896040518082805190602001908083835b602083106142565780518252602082019150602081019050602083039250614233565b6001836020036101000a038019825116818451168082178552505050505050905001915050908152602001604051809103902060000180546001816001161561010002031660029004905014156142f8576040517f08c379a0000000000000000000000000000000000000000000000000000000008152600401808060200182810382526021815260200180615ca16021913960400191505060405180910390fd5b866003896040518082805190602001908083835b6020831061432f578051825260208201915060208101905060208303925061430c565b6001836020036101000a038019825116818451168082178552505050505050905001915050908152602001604051809103902060060154146143bc576040517f08c379a0000000000000000000000000000000000000000000000000000000008152600401808060200182810382526022815260200180615d2a6022913960400191505060405180910390fd5b6003886040518082805190602001908083835b602083106143f257805182526020820191506020810190506020830392506143cf565b6001836020036101000a03801982511681845116808217855250505050505090500191505090815260200160405180910390206000016003896040518082805190602001908083835b6020831061445e578051825260208201915060208101905060208303925061443b565b6001836020036101000a038019825116818451168082178552505050505050905001915050908152602001604051809103902060010160038a6040518082805190602001908083835b602083106144ca57805182526020820191506020810190506020830392506144a7565b6001836020036101000a038019825116818451168082178552505050505050905001915050908152602001604051809103902060020160038b6040518082805190602001908083835b602083106145365780518252602082019150602081019050602083039250614513565b6001836020036101000a038019825116818451168082178552505050505050905001915050908152602001604051809103902060030160038c6040518082805190602001908083835b602083106145a2578051825260208201915060208101905060208303925061457f565b6001836020036101000a038019825116818451168082178552505050505050905001915050908152602001604051809103902060040160038d6040518082805190602001908083835b6020831061460e57805182526020820191506020810190506020830392506145eb565b6001836020036101000a0380198251168184511680821785525050505050509050019150509081526020016040518091039020600501858054600181600116156101000203166002900480601f0160208091040260200160405190810160405280929190818152602001828054600181600116156101000203166002900480156146d95780601f106146ae576101008083540402835291602001916146d9565b820191906000526020600020905b8154815290600101906020018083116146bc57829003601f168201915b50505050509550848054600181600116156101000203166002900480601f0160208091040260200160405190810160405280929190818152602001828054600181600116156101000203166002900480156147755780601f1061474a57610100808354040283529160200191614775565b820191906000526020600020905b81548152906001019060200180831161475857829003601f168201915b50505050509450838054600181600116156101000203166002900480601f0160208091040260200160405190810160405280929190818152602001828054600181600116156101000203166002900480156148115780601f106147e657610100808354040283529160200191614811565b820191906000526020600020905b8154815290600101906020018083116147f457829003601f168201915b50505050509350828054600181600116156101000203166002900480601f0160208091040260200160405190810160405280929190818152602001828054600181600116156101000203166002900480156148ad5780601f10614882576101008083540402835291602001916148ad565b820191906000526020600020905b81548152906001019060200180831161489057829003601f168201915b50505050509250818054600181600116156101000203166002900480601f0160208091040260200160405190810160405280929190818152602001828054600181600116156101000203166002900480156149495780601f1061491e57610100808354040283529160200191614949565b820191906000526020600020905b81548152906001019060200180831161492c57829003601f168201915b50505050509150808054600181600116156101000203166002900480601f0160208091040260200160405190810160405280929190818152602001828054600181600116156101000203166002900480156149e55780601f106149ba576101008083540402835291602001916149e5565b820191906000526020600020905b8154815290600101906020018083116149c857829003601f168201915b505050505090509550955095509550955095509295509295509295565b6060826004856040518082805190602001908083835b60208310614a3b5780518252602082019150602081019050602083039250614a18565b6001836020036101000a03801982511681845116808217855250505050505090500191505090815260200160405180910390206005015414614ac8576040517f08c379a0000000000000000000000000000000000000000000000000000000008152600401808060200182810382526023815260200180615cc26023913960400191505060405180910390fd5b600080856040518082805190602001908083835b60208310614aff5780518252602082019150602081019050602083039250614adc565b6001836020036101000a0380198251168184511680821785525050505050509050019150509081526020016040518091039020836040518082805190602001908083835b60208310614b665780518252602082019150602081019050602083039250614b43565b6001836020036101000a03801982511681845116808217855250505050505090500191505090815260200160405180910390208054600181600116156101000203166002900490501415614c05576040517f08c379a0000000000000000000000000000000000000000000000000000000008152600401808060200182810382526023815260200180615d076023913960400191505060405180910390fd5b6000846040518082805190602001908083835b60208310614c3b5780518252602082019150602081019050602083039250614c18565b6001836020036101000a0380198251168184511680821785525050505050509050019150509081526020016040518091039020826040518082805190602001908083835b60208310614ca25780518252602082019150602081019050602083039250614c7f565b6001836020036101000a03801982511681845116808217855250505050505090500191505090815260200160405180910390208054600181600116156101000203166002900480601f016020809104026020016040519081016040528092919081815260200182805460018160011615610100020316600290048015614d695780601f10614d3e57610100808354040283529160200191614d69565b820191906000526020600020905b815481529060010190602001808311614d4c57829003601f168201915b505050505090509392505050565b606060006004836040518082805190602001908083835b60208310614db15780518252602082019150602081019050602083039250614d8e565b6001836020036101000a03801982511681845116808217855250505050505090500191505090815260200160405180910390206000018054600181600116156101000203166002900490501415614e53576040517f08c379a0000000000000000000000000000000000000000000000000000000008152600401808060200182810382526022815260200180615d4c6022913960400191505060405180910390fd5b6002836040518082805190602001908083835b60208310614e895780518252602082019150602081019050602083039250614e66565b6001836020036101000a0380198251168184511680821785525050505050509050019150509081526020016040518091039020826040518082805190602001908083835b60208310614ef05780518252602082019150602081019050602083039250614ecd565b6001836020036101000a03801982511681845116808217855250505050505090500191505090815260200160405180910390208054600181600116156101000203166002900480601f016020809104026020016040519081016040528092919081815260200182805460018160011615610100020316600290048015614fb75780601f10614f8c57610100808354040283529160200191614fb7565b820191906000526020600020905b815481529060010190602001808311614f9a57829003601f168201915b5050505050905092915050565b60016005826040518082805190602001908083835b60208310614ffc5780518252602082019150602081019050602083039250614fd9565b6001836020036101000a038019825116818451168082178552505050505050905001915050908152602001604051809103902060006101000a81548160ff02191690831515021790555050565b606060006004856040518082805190602001908083835b602083106150835780518252602082019150602081019050602083039250615060565b6001836020036101000a03801982511681845116808217855250505050505090500191505090815260200160405180910390206000018054600181600116156101000203166002900490501415615125576040517f08c379a0000000000000000000000000000000000000000000000000000000008152600401808060200182810382526022815260200180615d4c6022913960400191505060405180910390fd5b600115156005846040518082805190602001908083835b6020831061515f578051825260208201915060208101905060208303925061513c565b6001836020036101000a038019825116818451168082178552505050505050905001915050908152602001604051809103902060009054906101000a900460ff16151514615215576040517f08c379a00000000000000000000000000000000000000000000000000000000081526004018080602001828103825260158152602001807f446f63746f72206973206e6f7420616c6c6f776564000000000000000000000081525060200191505060405180910390fd5b6000846040518082805190602001908083835b6020831061524b5780518252602082019150602081019050602083039250615228565b6001836020036101000a0380198251168184511680821785525050505050509050019150509081526020016040518091039020826040518082805190602001908083835b602083106152b2578051825260208201915060208101905060208303925061528f565b6001836020036101000a03801982511681845116808217855250505050505090500191505090815260200160405180910390208054600181600116156101000203166002900480601f0160208091040260200160405190810160405280929190818152602001828054600181600116156101000203166002900480156153795780601f1061534e57610100808354040283529160200191615379565b820191906000526020600020905b81548152906001019060200180831161535c57829003601f168201915b505050505090509392505050565b6000806003846040518082805190602001908083835b602083106153c0578051825260208201915060208101905060208303925061539d565b6001836020036101000a038019825116818451168082178552505050505050905001915050908152602001604051809103902060000180546001816001161561010002031660029004905014615461576040517f08c379a0000000000000000000000000000000000000000000000000000000008152600401808060200182810382526022815260200180615ce56022913960400191505060405180910390fd5b600283836040516020018083805190602001908083835b6020831061549b5780518252602082019150602081019050602083039250615478565b6001836020036101000a03801982511681845116808217855250505050505090500182805190602001908083835b602083106154ec57805182526020820191506020810190506020830392506154c9565b6001836020036101000a038019825116818451168082178552505050505050905001807f2a265e0000000000000000000000000000000000000000000000000000000000815250600301925050506040516020818303038152906040526040518082805190602001908083835b6020831061557c5780518252602082019150602081019050602083039250615559565b6001836020036101000a038019825116818451168082178552505050505050905001915050602060405180830381855afa1580156155be573d6000803e3d6000fd5b5050506040513d60208110156155d357600080fd5b8101908080519060200190929190505050905092915050565b60006003886040518082805190602001908083835b602083106156245780518252602082019150602081019050602083039250615601565b6001836020036101000a0380198251168184511680821785525050505050509050019150509081526020016040518091039020600001805460018160011615610100020316600290049050146156c5576040517f08c379a0000000000000000000000000000000000000000000000000000000008152600401808060200182810382526022815260200180615ce56022913960400191505060405180910390fd5b80600288886040516020018083805190602001908083835b6020831061570057805182526020820191506020810190506020830392506156dd565b6001836020036101000a03801982511681845116808217855250505050505090500182805190602001908083835b60208310615751578051825260208201915060208101905060208303925061572e565b6001836020036101000a038019825116818451168082178552505050505050905001807f2a265e0000000000000000000000000000000000000000000000000000000000815250600301925050506040516020818303038152906040526040518082805190602001908083835b602083106157e157805182526020820191506020810190506020830392506157be565b6001836020036101000a038019825116818451168082178552505050505050905001915050602060405180830381855afa158015615823573d6000803e3d6000fd5b5050506040513d602081101561583857600080fd5b8101908080519060200190929190505050146158bc576040517f08c379a00000000000000000000000000000000000000000000000000000000081526004018080602001828103825260108152602001807f57726f6e6720496e666f6d6174696f6e0000000000000000000000000000000081525060200191505060405180910390fd5b604051806101000160405280888152602001878152602001868152602001858152602001848152602001838152602001828152602001600067ffffffffffffffff8111801561590a57600080fd5b5060405190808252806020026020018201604052801561593e57816020015b60608152602001906001900390816159295790505b508152506003886040518082805190602001908083835b602083106159785780518252602082019150602081019050602083039250615955565b6001836020036101000a038019825116818451168082178552505050505050905001915050908152602001604051809103902060008201518160000190805190602001906159c7929190615b14565b5060208201518160010190805190602001906159e4929190615b14565b506040820151816002019080519060200190615a01929190615b14565b506060820151816003019080519060200190615a1e929190615b14565b506080820151816004019080519060200190615a3b929190615b14565b5060a0820151816005019080519060200190615a58929190615b14565b5060c0820151816006015560e0820151816007019080519060200190615a7f929190615b94565b5090505050505050505050565b60405180610100016040528060608152602001606081526020016060815260200160608152602001606081526020016060815260200160008019168152602001606081525090565b6040518060e00160405280606081526020016060815260200160608152602001606081526020016060815260200160008019168152602001606081525090565b828054600181600116156101000203166002900490600052602060002090601f016020900481019282601f10615b5557805160ff1916838001178555615b83565b82800160010185558215615b83579182015b82811115615b82578251825591602001919060010190615b67565b5b509050615b909190615bf4565b5090565b828054828255906000526020600020908101928215615be3579160200282015b82811115615be2578251829080519060200190615bd2929190615b14565b5091602001919060010190615bb4565b5b509050615bf09190615c11565b5090565b5b80821115615c0d576000816000905550600101615bf5565b5090565b5b80821115615c315760008181615c289190615c35565b50600101615c12565b5090565b50805460018160011615610100020316600290046000825580601f10615c5b5750615c7a565b601f016020900490600052602060002090810190615c799190615bf4565b5b5056fe50617469656e7420616c72656164792065786973747320776974682074686973206964446f63746f7220646f65736e27742065786973742077697468207468697320696450617469656e74277320494420616e64204861736820646f65736e2774206d61746368446f63746f7220616c726561647920657869737473207769746820746869732069644e6f205265636f72642065786973747320666f722074686520676976656e2064617465446f63746f72277320494420616e64204861736820646f65736e2774206d6174636850617469656e7420646f65736e277420657869737420776974682074686973206964a264697066735822122027249e255c714cdf8ff38dc20ab67f7796945744a4f2754b8512a1c9607de7e564736f6c634300060c0033",
  "immutableReferences": {},
  "source": "// SPDX-License-Identifier: MIT\r\npragma solidity >=0.4.22 <0.7.0;\r\n\r\ncontract Merge {\r\n     \r\n    mapping(string => mapping(string => string)) dateToIpfsPatient;\r\n    mapping(string => mapping(string => string)) doctorsInfo_in_hospital; \r\n    mapping(string => mapping(string => string)) patientsInfo_in_hospital;\r\n    \r\n    mapping(string => doctor) doctorlist;\r\n    mapping(string => patient) patientlist;\r\n    mapping(string => bool) allowed_doctors;\r\n\r\n    //string public ipfshash;\r\n    bytes32 public common_hash;\r\n\r\n     struct doctor {\r\n         string doctor_id;\r\n         string doctor_name;\r\n         string doctor_address;\r\n         string doctor_phone;\r\n         string  doctor_email;\r\n         string  doctor_dept;\r\n         bytes32 doctor_hash;\r\n         string[] Hash_of_visited_patients;\r\n      }\r\n     doctor d;\r\n    \r\n    struct patient{\r\n         string patient_id;\r\n         string patient_name;\r\n         string patient_address;\r\n         string patient_phone;\r\n         string patient_email;\r\n         bytes32 patient_hash;\r\n         string[] Hash_of_visited_doctors;\r\n     }\r\n     patient p;\r\n\r\n     function getHashD(string memory _id, string memory _doctor_name) public view returns(bytes32){\r\n            \r\n            \r\n            require(bytes(doctorlist[_id]. doctor_id).length == 0, \"Doctor already exists with this id\");\r\n         \r\n            return (sha256(abi.encodePacked(_id , _doctor_name, '*&^')));\r\n     }\r\n     \r\n     function newRegistrationD(string memory _id,string memory _doctor_name, string memory _doctor_address, string memory _phone, string memory _email,string memory _dept, bytes32 _hash)public {\r\n         \r\n         \r\n         require(bytes(doctorlist[_id].doctor_id).length == 0, \"Doctor already exists with this id\"); \r\n\r\n         require(sha256(abi.encodePacked(_id , _doctor_name, '*&^')) == _hash, \"Wrong Infomation\");\r\n         \r\n         doctorlist[_id] = doctor({ doctor_id:_id, doctor_name : _doctor_name,doctor_address : _doctor_address,  doctor_phone : _phone,  doctor_email : _email,  doctor_dept : _dept, doctor_hash : _hash, Hash_of_visited_patients : new string[](0) }) ;\r\n    }\r\n         \r\n   \r\n    function ViewDetailsD(string memory _id, bytes32 _hash) public view returns (string memory,string memory,string memory, string memory, string memory , string memory) {\r\n \r\n     require(bytes(doctorlist[_id].doctor_id).length != 0, \"Doctor doesn't exist with this id\");\r\n     require(doctorlist[_id].doctor_hash == _hash, \"Doctor's ID and Hash doesn't match\");\r\n     \r\n     return (doctorlist[_id].doctor_id, doctorlist[_id].doctor_name, doctorlist[_id].doctor_address, doctorlist[_id]. doctor_phone, doctorlist[_id]. doctor_email, doctorlist[_id]. doctor_dept);\r\n     \r\n    }\r\n\r\n    function getHashP(string memory _id, string memory _patient_name) public view returns(bytes32){\r\n            \r\n            require(bytes(patientlist[_id].patient_id).length == 0, \"Patient already exists with this id\");\r\n               \r\n            return (sha256(abi.encodePacked(_id ,_patient_name, '*()*)*(*_&')));\r\n    }\r\n     \r\n    function newRegistrationP(string memory _id, string memory _patient_name, string memory _patient_address, string memory _phone, string memory _email, bytes32 _hash)public {\r\n         \r\n         require(bytes(patientlist[_id].patient_id).length == 0, \"Patient exists with this id\");\r\n         \r\n         require(sha256(abi.encodePacked(_id ,_patient_name, '*()*)*(*_&')) == _hash, \"Wrong Information\");\r\n\r\n         \r\n         patientlist[_id] = patient({patient_id:_id, patient_name : _patient_name,patient_address : _patient_address, patient_phone : _phone, patient_email : _email, patient_hash : _hash, Hash_of_visited_doctors : new string[](0) }) ;\r\n\r\n\r\n    }\r\n         \r\n   \r\n    function ViewDetailsP(string memory _id, bytes32 _hash) public view returns (string memory,string memory,string memory, string memory, string memory ){\r\n             \r\n     require(bytes(patientlist[_id].patient_id).length != 0, \"Patient doesn't exist with this id\");\r\n     \r\n     require(patientlist[_id].patient_hash == _hash, \"Patient's ID and Hash doesn't match\");\r\n     \r\n     return (patientlist[_id].patient_id, patientlist[_id].patient_name, patientlist[_id].patient_address, patientlist[_id].patient_phone, patientlist[_id].patient_email);\r\n     \r\n    }\r\n    \r\n    /*function get_combined_hash() public view returns(bytes32) {\r\n           return common_hash;\r\n    }*/\r\n\r\n    function Add_record(string memory h_id, string memory p_id, string memory d_id, string memory _date, string memory _ipfshash) public {\r\n\r\n           \r\n           require(bytes(patientlist[p_id].patient_id).length != 0, \"Patient doesn't exist with this id\");\r\n           \r\n           doctor memory d1 = doctorlist[d_id];\r\n           patient memory p1 = patientlist[p_id];\r\n           \r\n           doctorsInfo_in_hospital[h_id][d_id] = string(abi.encodePacked(d1.doctor_id, ' , ', d1.doctor_name, ' , ', d1.doctor_address, ' , ',  d1.doctor_phone, ' , ', d1.doctor_email, ' , ', d1.doctor_dept));\r\n           patientsInfo_in_hospital[h_id][p_id] = string(abi.encodePacked(p1.patient_id, ' , ', p1.patient_name, ' , ', p1.patient_address, ' , ', p1.patient_phone, ' , ', p1.patient_email));\r\n\r\n           patientlist[p_id].Hash_of_visited_doctors.push(d_id);\r\n            \r\n           doctorlist[d_id].Hash_of_visited_patients.push(p_id);\r\n\r\n           //ipfshash = _ipfshash;\r\n\r\n           dateToIpfsPatient[p_id][_date] = _ipfshash;\r\n\r\n    }\r\n\r\n    /*function view_record_as_doctor(bytes32 _common_hash) public view returns(string memory){\r\n\r\n           require(common_hash == _common_hash , \"No Record exists for the given date\");\r\n           return ipfshash;\r\n    }*/\r\n    \r\n    function give_permission_to_doctor(string memory d_id) public {\r\n              allowed_doctors[d_id] = true;\r\n    }\r\n    \r\n    function remove_permission_for_doctor(string memory d_id) public {\r\n             allowed_doctors[d_id] = false;\r\n    }\r\n\r\n    function view_record_as_patient(string memory p_id, bytes32 p_hash, string memory _date) public view returns(string memory) {\r\n         \r\n \r\n         require(patientlist[p_id].patient_hash == p_hash, \"Patient's ID and Hash doesn't match\");\r\n\r\n         \r\n         //string memory _IPFShash = dateToIpfsPatient[p_hash][_date];\r\n\r\n         require(bytes(dateToIpfsPatient[p_id][_date]).length != 0 , \"No Record exists for the given date\");\r\n\r\n         return dateToIpfsPatient[p_id][_date];\r\n\r\n    } \r\n    \r\n     function view_record_as_doctor(string memory p_id, string memory d_id, string memory _date) public view returns(string memory) {\r\n\r\n           require(bytes(patientlist[p_id].patient_id).length != 0, \"Patient doesn't exist with this id\");\r\n           require(allowed_doctors[d_id] == true, \"Doctor is not allowed\");\r\n\r\n           /*doctor memory d1 = doctorlist[d_id];\r\n           patient memory p1 = patientlist[p_id];\r\n           \r\n           doctorsInfo_in_hospital[h_id][d_id] = string(abi.encodePacked(d1.doctor_id, ' , ', d1.doctor_name, ' , ', d1.doctor_address, ' , ',  d1.doctor_phone, ' , ', d1.doctor_email, ' , ', d1.doctor_dept));\r\n           patientsInfo_in_hospital[h_id][p_id] = string(abi.encodePacked(p1.patient_id, ' , ', p1.patient_name, ' , ', p1.patient_address, ' , ', p1.patient_phone, ' , ', p1.patient_email));*/\r\n           \r\n           return dateToIpfsPatient[p_id][_date];\r\n\r\n    }\r\n    \r\n    function View_Doctors_info(string memory _hos_id, string memory _doc_id) public view returns(string memory) {\r\n\r\n\r\n         require(bytes(doctorlist[_doc_id].doctor_id).length != 0, \"Doctor doesn't exist with this id\");\r\n         return doctorsInfo_in_hospital[_hos_id][_doc_id];\r\n    }\r\n    \r\n    function View_Patients_info(string memory _hos_id, string memory _pat_id) public view returns(string memory) {\r\n\r\n         require(bytes(patientlist[_pat_id].patient_id).length != 0, \"Patient doesn't exist with this id\");\r\n         return patientsInfo_in_hospital[_hos_id][_pat_id];\r\n    }    \r\n}",
  "sourcePath": "C:/Users/Admin/Desktop/new/Testing/contracts/Merge.sol",
  "compiler": {
    "name": "solc",
    "version": "0.6.12+commit.27d51765.Emscripten.clang"
  },
  "schemaVersion": "3.4.1",
  "updatedAt": "2021-07-20T13:03:22.384Z",
  "networkType": "ethereum",
  "devdoc": {
    "kind": "dev",
    "methods": {},
    "version": 1
  },
  "userdoc": {
    "kind": "user",
    "methods": {},
    "version": 1
  }
}